:1000000012C02AC029C028C027C026C05AC289C22F
:10001000B4C222C021C020C01FC01EC01DC01CC051
:100020001BC01AC019C011241FBECFEDCDBF10E0F8
:10003000A0E6B0E0E2EDF7E002C005900D92AE3729
:10004000B107D9F720E0AEE7B0E001C01D92A53AB4
:10005000B207E1F700D3BBC3D3CF87B38C7F87BB95
:1000600088B3836088BB87B3877E87BB88B388618A
:1000700088BB8E98969ABA98C29A089586B396B31A
:10008000E0917F00EF70F0E0880F8270969591709C
:10009000892BEE0FFF1FEE0FFF1FEE59FF4FE80FEA
:1000A000F11D87FDFA95808180937F0080917F000C
:1000B0008073089586B396B3E0917E00EF70F0E010
:1000C00086958695827092959170892BEE0FFF1F11
:1000D000EE0FFF1FEE59FF4FE80FF11D87FDFA9558
:1000E000808180937E0080917E0080730895C6DFBA
:1000F000803171F520918200309183008091610000
:10010000820F932F911D90938300809382008091A2
:100110008600909187009093850080938400809161
:100120008200909183008838934134F088E893E10D
:10013000909383008093820080918200909183004D
:100140001816190624F01092830010928200089568
:10015000803229F780918200909183002091610084
:10016000821B9109D0CFA6DF803171F520918000EC
:100170003091810080916000820F932F911D9093A8
:1001800081008093800080918600909187009093F9
:100190008500809384008091800090918100883850
:1001A000934134F088E893E190938100809380003C
:1001B00080918000909181001816190624F0109209
:1001C0008100109280000895803229F7809180008C
:1001D0009091810020916000821B9109D0CF482F1F
:1001E000FC018FEF9FEF2E2F241B261708F0089598
:1001F000319128E0532F58279695879550FF04C0DA
:1002000051E0852750EA95273695215099F7EBCF95
:10021000CF92DF92EF92FF920F931F93CF93DF93D2
:10022000CDB7DD27C951CDBF81E0888B83E0898BB5
:100230001A8A1B8A1C8A82E08D8B84EC8E8B8BE061
:100240008F8BD4D18E01005F1F4F6E0128E1C20E4B
:10025000D11C7801F80181918F01ECD1C016D10633
:10026000C9F7FFEF24E38CE0F15020408040E1F734
:1002700000C00000C0D190FF2EC067E0CE01019603
:10028000AEDF48859C0133274217130691F5298577
:10029000892F99272817190661F58C819D81982748
:1002A0008927982790938300809382008E819F8175
:1002B000982789279827909381008093800081E078
:1002C000C75ECDBFDF91CF911F910F91FF90EF904F
:1002D000DF90CF9008958E010F5F1F4F90FDCDCF1F
:1002E000F80181938F0187D10E151F05B9F77ED1D3
:1002F000C4CF80E0E5CFCF92DF92EF92FF920F93D1
:100300001F93CF93DF93CDB7DD27C951CDBF81E0D8
:10031000888B93E0998B1A8A98E09B8B1C8A8D8B33
:1003200085E08E8B88EC8F8B61D18E01005F1F4F33
:100330006E0128E1C20ED11C7801F80181918F0174
:1003400079D10C151D05C9F7FFEF24E38CE0F150BE
:1003500020408040E1F700C000004DD190FF1FC059
:1003600065E0CE0101963BDF4E819C0133274217A9
:10037000130651F42F81892F99272817190621F484
:100380008D818130D1F4939AC75ECDBFDF91CF913B
:100390001F910F91FF90EF90DF90CF9008958E0105
:1003A0000F5F1F4F90FDDCCFF80181938F0123D1A8
:1003B0000E151F05B9F71AD1D3CF9398E5CFEF9259
:1003C000FF920F931F93CF93DF93CDB7DD27CA50D2
:1003D000CDBF21E0298326E02A831B821C829D83D6
:1003E0008E8366E0CE010196FADE8F8366E0CE0151
:1003F0000196F5DE98878E010F5F1F4F7E0189E021
:10040000E80EF11CF80181918F0114D18FEC97E077
:100410000197F1F700C000000E151F0599F7C65FA0
:10042000CDBFDF91CF911F910F91FF90EF90089575
:10043000EF92FF920F931F93CF93DF93CDB7DD27FA
:10044000CA50CDBF382F81E0898326E02A831B82E2
:100450008C8320E0892F922F6FEF70E0A4D18D83E1
:100460003E8366E0CE010196BADE9F8366E0CE0150
:100470000196B5DE88878E010F5F1F4F7E0189E0F0
:10048000E80EF11CF80181918F01D4D08FEC97E038
:100490000197F1F700C000000E151F0599F7C65F20
:1004A000CDBFDF91CF911F910F91FF90EF900895F5
:1004B00089B7826089BF83E882BF83B7836083BFC7
:1004C00008951F920F920FB60F9211242F933F930E
:1004D0004F935F936F937F938F939F93AF93BF934C
:1004E000EF93FF9304DE3FDE8091860090918700BA
:1004F0000196909387008093860082B78D5782BFC4
:10050000FF91EF91BF91AF919F918F917F916F91EB
:100510005F914F913F912F910F900FBE0F901F90C1
:1005200018951F920F920FB60F9211242F938F934D
:100530009F93EF93FF938BB19CB1E0918A00EF5FA3
:10054000EF70209189002E17B1F08C71E0938A0032
:10055000F0E0E357FF4F908390918800892B8093C0
:100560008800FF91EF919F918F912F910F900FBE77
:100570000F901F90189582E0EFCF1F920F920FB649
:100580000F9211248F939F93EF93FF9390918C0080
:1005900080918B009817A1F0E0918B00EF5FE770DE
:1005A000E0938B00F0E0E356FF4F80818CB9FF9120
:1005B000EF919F918F910F900FBE0F901F90189504
:1005C0005598F5CF10928C0010928B0010928A00F3
:1005D0001092890097FF02C022E02BB9907892B95F
:1005E00089B988E98AB986E083B90895809189003C
:1005F00080938A00089590918A00809189009817CD
:10060000B1F0909189009F5F9F70E92FF0E0E35770
:10061000FF4F3081209188009093890010928800CC
:10062000822F90E0982F8827830F911D089580E0F6
:1006300091E0089590918C009F5F977020918B00BE
:100640002917E1F3E92FF0E0E356FF4F8083909301
:100650008C00559A08958B9A81E080936100809375
:10066000600083E390E0AEDFF8DC22DF7894D0DD39
:10067000813009F08EC0C0918200D091830000913A
:100680008000109181008BE0F82E869916C08FE1D2
:100690009EE40197F1F700C0000086990EC080919A
:1006A00061008F25809361009FEF20E782E09150E9
:1006B00020408040E1F700C00000B29916C08FE1F1
:1006C0009EE40197F1F700C00000B2990EC080913E
:1006D00060008F25809360009FEF20E782E09150BB
:1006E00020408040E1F700C000008091820090919E
:1006F00083008C179D0711F18091860090918700EF
:100700002091840030918500821B930B80399140A9
:10071000A8F0809182009091830051DE8FEF94E3E6
:100720002CE0815090402040E1F700C0000070DDD7
:10073000813021F4C0918200D091830080918000AB
:10074000909181008017910711F18091860090911E
:1007500087002091840030918500821B930B8039A3
:100760009140A8F0809180009091810061DE8FEF30
:1007700094E32CE0815090402040E1F700C000005D
:1007800047DD813021F40091800010918100B3DDBC
:100790007CCF2FEF80E792E0215080409040E1F73E
:1007A00000C0000064CFAA1BBB1B51E107C0AA1FF9
:1007B000BB1FA617B70710F0A61BB70B881F991F02
:1007C0005A95A9F780959095BC01CD010895F894AC
:0207D000FFCF59
:1007D20001010002040003000110030200000302F1
:0E07E2000100060004000605002006050400C4
:00000001FF
