:1000000012C02AC029C028C027C026C004C233C2DB
:100010005EC222C021C020C01FC01EC01DC01CC0A7
:100020001BC01AC019C011241FBECFEDCDBF10E0F8
:10003000A0E6B0E0E8E7F7E002C005900D92AE3729
:10004000B107D9F720E0AEE7B0E001C01D92A53AB4
:10005000B207E1F7C2D28EC3D3CF87B38C7F87BB01
:1000600088B3836088BB87B3877E87BB88B388618A
:1000700088BB8E98969ABA98C29A089586B396B31A
:10008000E0917F00EF70F0E0880F8270969591709C
:10009000892BEE0FFF1FEE0FFF1FEE59FF4FE80FEA
:1000A000F11D87FDFA95808180937F0080917F000C
:1000B0008073089586B396B3E0917E00EF70F0E010
:1000C00086958695827092959170892BEE0FFF1F11
:1000D000EE0FFF1FEE59FF4FE80FF11D87FDFA9558
:1000E000808180937E0080917E0080730895C6DFBA
:1000F000803171F520918200309183008091610000
:10010000820F932F911D90938300809382008091A2
:100110008600909187009093850080938400809161
:100120008200909183008838934134F088E893E10D
:10013000909383008093820080918200909183004D
:100140001816190624F01092830010928200089568
:10015000803229F780918200909183002091610084
:10016000821B9109D0CFA6DF803171F520918000EC
:100170003091810080916000820F932F911D9093A8
:1001800081008093800080918600909187009093F9
:100190008500809384008091800090918100883850
:1001A000934134F088E893E190938100809380003C
:1001B00080918000909181001816190624F0109209
:1001C0008100109280000895803229F7809180008C
:1001D0009091810020916000821B9109D0CFDC01B9
:1001E000FC018FEF9FEF9F012A1B3B0B2617370760
:1001F0000CF00895419128E030E0542F582796954F
:10020000879550FF04C051E0852750EA9527469511
:100210002150310991F7E7CFEF92FF920F931F938F
:10022000CF93DF93CDB7DD27CE51CDBF81E089835A
:1002300083E08A831B821C821D8282E08E8384EC91
:100240008F838BE088877CD18E010F5F1F4F7E01EB
:1002500029E0E20EF11CF80181918F0195D18FEC1C
:1002600097E00197F1F700C00000E016F10699F75A
:100270009FEFE4E3FCE09150E040F040E1F700C084
:10028000000063D190FF2DC067E070E0CE01409682
:10029000A6DF4F899C01332742171306A1F5288D4D
:1002A000892F99272817190671F58B899C8998271A
:1002B0008927982790938300809382008D899E8957
:1002C000982789279827909381008093800081E068
:1002D000C25ECDBFDF91CF911F910F91FF90EF9044
:1002E00008958E01005F1F4F7E01FFE1EF0EF11CAC
:1002F00090FDCACFF80181938F0127D10E151F05FC
:10030000B9F71ED1C1CF80E0E3CFEF92FF920F93F8
:100310001F93CF93DF93CDB7DD27CA50CDBF21E028
:10032000298326E02A831B821C829D838E8366E0BC
:1003300070E0CE01019653DF8F8366E070E0CE015E
:1003400001964DDF98878E010F5F1F4F7E0189E078
:10035000E80EF11CF80181918F0116D18FEC97E026
:100360000197F1F700C000000E151F0599F7C65F51
:10037000CDBFDF91CF911F910F91FF90EF90089526
:10038000EF92FF920F931F93CF93DF93CDB7DD27AB
:10039000CA50CDBF382F81E0898326E02A831B8293
:1003A0008C8320E0892F922F6FEF70E0CFD18D8367
:1003B0003E8366E070E0CE01019611DF9F8366E028
:1003C00070E0CE0101960BDF88878E010F5F1F4F13
:1003D0007E0189E0E80EF11CF80181918F01D4D0F3
:1003E0008FEC97E00197F1F700C000000E151F0594
:1003F00099F7C65FCDBFDF91CF911F910F91FF900D
:10040000EF90089589B7826089BF83E882BF83B780
:10041000836083BF08951F920F920FB60F9211242D
:100420002F933F934F935F936F937F938F939F93FC
:10043000AF93BF93EF93FF935ADE95DE80918600D2
:10044000909187000196909387008093860082B7F1
:100450008D5782BFFF91EF91BF91AF919F918F9187
:100460007F916F915F914F913F912F910F900FBEB0
:100470000F901F9018951F920F920FB60F92112494
:100480002F938F939F93EF93FF938BB19CB1E09148
:100490008A00EF5FEF70209189002E17B1F08C7108
:1004A000E0938A00F0E0E357FF4F9083909188003B
:1004B000892B80938800FF91EF919F918F912F91CD
:1004C0000F900FBE0F901F90189582E0EFCF1F92F4
:1004D0000F920FB60F9211248F939F93EF93FF9378
:1004E00090918C0080918B009817A1F0E0918B0087
:1004F000EF5FE770E0938B00F0E0E356FF4F808101
:100500008CB9FF91EF919F918F910F900FBE0F903B
:100510001F9018955598F5CF10928C0010928B0073
:1005200010928A001092890097FF02C022E02BB936
:10053000907892B989B988E98AB986E083B9089533
:100540008091890080938A00089590918A0080911B
:1005500089009817B1F0909189009F5F9F70E92FF3
:10056000F0E0E357FF4F308120918800909389009D
:1005700010928800822F90E0982F8827830F911D7A
:10058000089580E091E0089590918C009F5F9770AE
:1005900020918B002917E1F3E92FF0E0E356FF4F9C
:1005A000808390938C00559A0895CF93DF93EC014C
:1005B0008991811103C0DF91CF910895E5DFF8CFD4
:1005C000CF93DF93EC01FE0184912196811103C04A
:1005D000DF91CF910895D8DFF6CF81E0809361005D
:1005E0008093600083E390E097DF37DD0BDF789442
:1005F0002FEF89E698E1215080409040E1F700C05C
:1006000000000ADE813009F099C0C0918200D091CB
:10061000830000918000109181008BE0F82E869974
:1006200016C08FE19EE40197F1F700C000008699A3
:100630000EC0809161008F25809361009FEF20E7BD
:1006400082E0915020408040E1F700C00000B29964
:1006500016C08FE19EE40197F1F700C00000B29947
:100660000EC0809160008F25809360009FEF20E78F
:1006700082E0915020408040E1F700C000008FE10F
:100680009EE40197F1F700C00000809182009091F4
:1006900083008C179D0711F180918600909187004F
:1006A0002091840030918500821B930B843F914000
:1006B000A8F0809182009091830027DE8FEF94E371
:1006C0002CE0815090402040E1F700C00000A4DD04
:1006D000813021F4C0918200D0918300809180000C
:1006E000909181008017910711F18091860090917F
:1006F00087002091840030918500821B930B843FFA
:100700009140A8F0809180009091810039DE8FEFB8
:1007100094E32CE0815090402040E1F700C00000BD
:100720007BDD813021F400918000109181008FE108
:100730009EE40197F1F700C0000071CF2FEF80E732
:1007400092E0215080409040E1F759CFAA1BBB1B9B
:1007500051E107C0AA1FBB1FA617B70710F0A61BC1
:10076000B70B881F991F5A95A9F780959095BC01E2
:08077000CD010895F894FFCFBC
:10077800010100020400030001100302000003024B
:0E07880001000600040006050020060504001E
:00000001FF
