S020000062696E2F44656275672F64707335303035636F6E74726F6C2E7372656374
S113000012C02AC029C028C027C026C003C229C2E2
S113001054C222C021C020C01FC01EC01DC01CC0AD
S11300201BC01AC019C011241FBECFEDCDBF10E0F4
S1130030A0E6B0E0E0EAF7E002C005900D92AE372A
S1130040B107D9F720E0AEE7B0E001C01D92A93AAC
S1130050B207E1F7B8D2A2C3D3CF87B38C7F87BBF3
S113006088B3836088BB87B3877E87BB88B3886186
S113007088BB8E98969ABA98C29A089586B396B316
S1130080E0917F00EF70F0E0880F82709695917098
S1130090892BEE0FFF1FEE0FFF1FEE59FF4FE80FE6
S11300A0F11D87FDFA95808180937F0080917F0008
S11300B08073089586B396B3E0917E00EF70F0E00C
S11300C086958695827092959170892BEE0FFF1F0D
S11300D0EE0FFF1FEE59FF4FE80FF11D87FDFA9554
S11300E0808180937E0080917E0080730895C6DFB6
S11300F0803131F52091820030918300809161003C
S1130100820F932F911D909383008093820080919E
S11301108200909183008838934134F088E893E119
S11301209093830080938200809182009091830059
S11301301816190624F01092830010928200089574
S1130140803229F780918200909183002091610090
S1130150821B9109D8CFAEDF803131F52091800028
S11301603091810080916000820F932F911D9093B4
S11301708100809380008091800090918100883874
S1130180934134F088E893E1909381008093800058
S113019080918000909181001816190624F0109225
S11301A08100109280000895803229F780918000A8
S11301B09091810020916000821B9109D8CFDC01CD
S11301C0FC018FEF9FEF9F012A1B3B0B261737077C
S11301D00CF00895419128E030E0542F582796956B
S11301E0879550FF04C051E0852750EA952746952E
S11301F02150310991F7E7CFEF92FF920F931F93AC
S1130200CF93DF93CDB7DD27CE51CDBF81E0898376
S113021083E08A831B8282E08C831D828E8385E641
S11302208F838BEC888719868E010F5F1F4F7E01A9
S11302302AE0E20EF11CF80181918F019BD18FE13C
S11302409EE40197F1F700C000000E151F0599F711
S11302509FEFE0E7F2E09150E040F040E1F700C0AA
S1130260000069D190FF2DC067E070E0CE01409698
S1130270A6DF4F899C01332742171306D1F5288D39
S1130280892F992728171906A1F58B899C89982706
S11302908927982790938300809382008D899E8973
S11302A0982789279827909381008093800081E084
S11302B0C25ECDBFDF91CF911F910F91FF90EF9060
S11302C008959E01205F3F4F790110E090FD09C021
S11302D0F70181937F014ED12ED11F5F1F30B1F7FB
S11302E025D1E0E1F0E0EC0FFD1FE10FF11D1082DC
S11302F0BBCF80E0DDCFEF92FF920F931F93CF939C
S1130300DF93CDB7DD27CA50CDBF382F81E0898375
S113031086E08A831B821C8220E0892F922F6FEF54
S113032070E0F5D18D833E8366E070E0CE010196E6
S113033046DF9F8366E070E0CE01019640DF888748
S113034019868E010F5F1F4F7E018AE0E80EF11CB3
S1130350F80181918F010ED18FE19EE40197F1F7AD
S113036000C000000E151F0599F7C65FCDBFDF91D1
S1130370CF911F910F91FF90EF900895EF92FF920C
S11303800F931F93CF93DF93CDB7DD27CA50CDBF13
S1130390382F81E0898326E02A831B828C8320E026
S11303A0892F922F6FEF70E0B2D18D833E8366E088
S11303B070E0CE01019603DF9F8366E070E0CE011A
S11303C00196FDDE888719868E010F5F1F4F7E011F
S11303D08AE0E80EF11CF80181918F01CBD08FE106
S11303E09EE40197F1F700C000000E151F0599F770
S11303F0C65FCDBFDF91CF911F910F91FF90EF901A
S1130400089589B7826089BF83E882BF83B7836018
S113041083BF08951F920F920FB60F9211242F934A
S11304203F934F935F936F937F938F939F93AF9378
S1130430BF93EF93FF935BDE8EDE82B78D5782BF4F
S1130440FF91EF91BF91AF919F918F917F916F91A8
S11304505F914F913F912F910F900FBE0F901F907E
S113046018951F920F920FB60F9211242F938F930A
S11304709F93EF93FF938BB19CB1E0918600EF5F64
S1130480EF70209185002E17B1F08C71E0938600F7
S1130490F0E0E757FF4F908390918400892B80937D
S11304A08400FF91EF919F918F912F910F900FBE38
S11304B00F901F90189582E0EFCF1F920F920FB606
S11304C00F9211248F939F93EF93FF939091880041
S11304D0809187009817A1F0E0918700EF5FEF709B
S11304E0E0938700F0E0E756FF4F80818CB9FF91DD
S11304F0EF919F918F910F900FBE0F901F901895C1
S11305005598F5CF109288001092870010928600BB
S11305101092850097FF02C022E02BB9907892B91F
S113052089B988E98AB986E083B9089580918500FC
S11305308093860008959091860080918500981795
S1130540B1F0909185009F5F9F70E92FF0E0E7572D
S1130550FF4F308120918400909385001092840095
S1130560822F90E0982F8827830F911D089580E0B3
S113057091E00895909188009F5F9F70209187007B
S11305802917E1F3E92FF0E0E756FF4F80839093BA
S11305908800559A0895CF93DF93EC0189918111D6
S11305A003C0DF91CF910895E5DFF8CFCF93DF93B8
S11305B0EC01FE0184912196811103C0DF91CF915A
S11305C00895D8DFF6CFCF93DF93CDB7DD27C4509E
S11305D0CDBF81E0809361008093600083E390E06D
S11305E091DF3BDD0EDF78942FEF84E39CE0215014
S11305F080409040E1F700C00000FEDD813009F04A
S11306007EC00091820010918300E0908000F09001
S113061081008BE0D82E869916C08FE19EE4019765
S1130620F1F700C0000086990EC0809161008D250D
S1130630809361009FEF20E782E09150204080404A
S1130640E1F700C00000B29916C08FE19EE4019763
S1130650F1F700C00000B2990EC0809160008D25B2
S1130660809360009FEF20E782E09150204080401B
S1130670E1F700C000008FE19EE40197F1F700C0AC
S1130680000080918200909183008017910761F0AF
S113069080918200909183002EDEAEDD813021F4C2
S11306A000918200109183008091800090918100DC
S11306B08E159F0561F080918000909181005EDE2F
S11306C09BDD813021F4E0908000F09081008091E6
S11306D08200909183004AE0BE016F5F7F4F2BD070
S11306E0CE01019658DF80E245DF9FEF20E782E0EC
S11306F0915020408040E1F700C000008CCF2FEFE4
S113070080E792E0215080409040E1F774CFAA1B2B
S1130710BB1B51E107C0AA1FBB1FA617B70710F0E8
S1130720A61BB70B881F991F5A95A9F7809590951A
S1130730BC01CD010895BB274A3031F4992322F43A
S1130740BDE2909581959F4F01C0BB27FB015527C2
S1130750AA27880F991FAA1FA41710F0A41B83951A
S11307605051B9F7A05DAA3308F0A95DA193009791
S113077079F7B111B1931192CB0100C0DC01FC01F6
S1130780672F71917723E1F7329704C07C916D93C1
S113079070836291AE17BF07C8F30895F894FFCF32
S11307A0010100020400030001100302000003021F
S11107B00100060004000605002006050400F2
S9030000FC
